:100000000C942A000C9434000C9434000C943400AA
:100010000C9434000C9434000C9434000C94340090
:100020000C9434000C9434000C9434000C94340080
:100030000C9434000C9434000C9434000C94340070
:100040000C9434000C9434000C9434000C94340060
:100050000C94340011241FBECFE5D4E0DEBFCDBF29
:100060000E9436000C944A000C940000BE9ABF9A7D
:10007000B898B998C09AC19A96B386B3827090FF27
:1000800002C0C69A01C0C698882311F0C79AF4CF5F
:08009000C798F2CFF894FFCFEE
:00000001FF
